{
  "transactions": [
    {
      "hash": "0x7dd09c1d9b4065fa96d03b783d9ce3293188c618cb34e6f92f2a8829513feabc",
      "transactionType": "CALL",
      "contractName": null,
      "contractAddress": "0xb9fb801a5d1491e70a886800982cb80cdf98a174",
      "function": "transfer(address,uint256)",
      "arguments": [
        "0xE34FF1D2C925DDafB28C95C2396fC49A6f64569e",
        "1000000000000000000"
      ],
      "transaction": {
        "from": "0xe34ff1d2c925ddafb28c95c2396fc49a6f64569e",
        "to": "0xb9fb801a5d1491e70a886800982cb80cdf98a174",
        "gas": "0x9718",
        "value": "0x0",
        "input": "0xa9059cbb000000000000000000000000e34ff1d2c925ddafb28c95c2396fc49a6f64569e0000000000000000000000000000000000000000000000000de0b6b3a7640000",
        "nonce": "0x4",
        "chainId": "0x1404"
      },
      "additionalContracts": [],
      "isFixedGasLimit": false,
      "hasShieldedArgs": false
    }
  ],
  "receipts": [
    {
      "type": "0x2",
      "status": "0x1",
      "cumulativeGasUsed": "0x6d64",
      "logs": [
        {
          "address": "0xb9fb801a5d1491e70a886800982cb80cdf98a174",
          "topics": [
            "0xddf252ad1be2c89b69c2b068fc378daa952ba7f163c4a11628f55a4df523b3ef",
            "0x000000000000000000000000e34ff1d2c925ddafb28c95c2396fc49a6f64569e",
            "0x000000000000000000000000e34ff1d2c925ddafb28c95c2396fc49a6f64569e"
          ],
          "data": "0x0000000000000000000000000000000000000000000000000000000000000000",
          "blockHash": "0x8bab26d446c50917ae76c6d1d98c6a290952050b5e8c491939c7f54d63a27f62",
          "blockNumber": "0x433e01a",
          "blockTimestamp": "0x19e2c585011",
          "transactionHash": "0x7dd09c1d9b4065fa96d03b783d9ce3293188c618cb34e6f92f2a8829513feabc",
          "transactionIndex": "0x0",
          "logIndex": "0x0",
          "removed": false
        }
      ],
      "logsBloom": "0x00000000000000000000000000000000000000020000000000000000000000000000000000000000000000000000000000000000000000000000000000000000000000000000000000000008000000000000000000000000000000000000000000000004000000000000000000000000000000000000000000000010000000000000000000000000000000000000000000000000000000000000000000000000000000000000000000001000000000000000000000000000000000000000000000000002000000000004000000000000000000000000000000000000000000000000000000000000000000000000000800000000100000000000000000000000",
      "transactionHash": "0x7dd09c1d9b4065fa96d03b783d9ce3293188c618cb34e6f92f2a8829513feabc",
      "transactionIndex": "0x0",
      "blockHash": "0x8bab26d446c50917ae76c6d1d98c6a290952050b5e8c491939c7f54d63a27f62",
      "blockNumber": "0x433e01a",
      "gasUsed": "0x6d64",
      "effectiveGasPrice": "0x8",
      "from": "0xe34ff1d2c925ddafb28c95c2396fc49a6f64569e",
      "to": "0xb9fb801a5d1491e70a886800982cb80cdf98a174",
      "contractAddress": null
    }
  ],
  "libraries": [],
  "pending": [],
  "returns": {},
  "timestamp": 1778860446373,
  "chain": 5124,
  "commit": "6bc0ed5"
}