{
  "transactions": [
    {
      "hash": "0x548802fdd28a2a54cd603fdd3c0ee8f9a6960a0ff28b097558c94c2ff87d1907",
      "transactionType": "CALL",
      "contractName": null,
      "contractAddress": "0x8bc25db1feda8fc5eb20d0117ff1f965f2f4e29c",
      "function": "addSecret(string)",
      "arguments": [
        "mysecret3"
      ],
      "transaction": {
        "from": "0xe34ff1d2c925ddafb28c95c2396fc49a6f64569e",
        "to": "0x8bc25db1feda8fc5eb20d0117ff1f965f2f4e29c",
        "gas": "0x20c68",
        "value": "0x0",
        "input": "0x131e5eff000000000000000000000000000000000000000000000000000000000000002000000000000000000000000000000000000000000000000000000000000000096d79736563726574330000000000000000000000000000000000000000000000",
        "nonce": "0x8",
        "chainId": "0x1404"
      },
      "additionalContracts": [],
      "isFixedGasLimit": false,
      "hasShieldedArgs": false
    },
    {
      "hash": "0x45fe984e94599ef8922e4ea969e3351a2107b2f964fc3e284b7d85b37e4bbd5a",
      "transactionType": "CALL",
      "contractName": null,
      "contractAddress": "0x8bc25db1feda8fc5eb20d0117ff1f965f2f4e29c",
      "function": "hit()",
      "arguments": [],
      "transaction": {
        "from": "0xe34ff1d2c925ddafb28c95c2396fc49a6f64569e",
        "to": "0x8bc25db1feda8fc5eb20d0117ff1f965f2f4e29c",
        "gas": "0x12deb",
        "value": "0x0",
        "input": "0x2ae3594a",
        "nonce": "0x9",
        "chainId": "0x1404"
      },
      "additionalContracts": [],
      "isFixedGasLimit": false,
      "hasShieldedArgs": false
    },
    {
      "hash": "0x4c32c9adee8780216690e873df0f5856691a16b86aadf5d9eb22405dc4b6365e",
      "transactionType": "CALL",
      "contractName": null,
      "contractAddress": "0x8bc25db1feda8fc5eb20d0117ff1f965f2f4e29c",
      "function": "hit()",
      "arguments": [],
      "transaction": {
        "from": "0xe34ff1d2c925ddafb28c95c2396fc49a6f64569e",
        "to": "0x8bc25db1feda8fc5eb20d0117ff1f965f2f4e29c",
        "gas": "0xc0e1",
        "value": "0x0",
        "input": "0x2ae3594a",
        "nonce": "0xa",
        "chainId": "0x1404"
      },
      "additionalContracts": [],
      "isFixedGasLimit": false,
      "hasShieldedArgs": false
    },
    {
      "hash": "0xfc2b1fb2d736061c40454c399cdd8d433881009ca2b2c434babe96f5b7db43ff",
      "transactionType": "CALL",
      "contractName": null,
      "contractAddress": "0x8bc25db1feda8fc5eb20d0117ff1f965f2f4e29c",
      "function": "hit()",
      "arguments": [],
      "transaction": {
        "from": "0xe34ff1d2c925ddafb28c95c2396fc49a6f64569e",
        "to": "0x8bc25db1feda8fc5eb20d0117ff1f965f2f4e29c",
        "gas": "0xa6fb",
        "value": "0x0",
        "input": "0x2ae3594a",
        "nonce": "0xb",
        "chainId": "0x1404"
      },
      "additionalContracts": [],
      "isFixedGasLimit": false,
      "hasShieldedArgs": false
    },
    {
      "hash": "0xe535eaf940ebe1d3518aed5495227e28a6b259b743597c46afb13d5a21c2f033",
      "transactionType": "CALL",
      "contractName": null,
      "contractAddress": "0x8bc25db1feda8fc5eb20d0117ff1f965f2f4e29c",
      "function": "robAndReward()",
      "arguments": [],
      "transaction": {
        "from": "0xe34ff1d2c925ddafb28c95c2396fc49a6f64569e",
        "to": "0x8bc25db1feda8fc5eb20d0117ff1f965f2f4e29c",
        "gas": "0x12fd1",
        "value": "0x0",
        "input": "0x7e8aafe4",
        "nonce": "0xc",
        "chainId": "0x1404"
      },
      "additionalContracts": [],
      "isFixedGasLimit": false,
      "hasShieldedArgs": false
    }
  ],
  "receipts": [
    {
      "type": "0x2",
      "status": "0x1",
      "cumulativeGasUsed": "0x16692",
      "logs": [],
      "logsBloom": "0x00000000000000000000000000000000000000000000000000000000000000000000000000000000000000000000000000000000000000000000000000000000000000000000000000000000000000000000000000000000000000000000000000000000000000000000000000000000000000000000000000000000000000000000000000000000000000000000000000000000000000000000000000000000000000000000000000000000000000000000000000000000000000000000000000000000000000000000000000000000000000000000000000000000000000000000000000000000000000000000000000000000000000000000000000000000",
      "transactionHash": "0x548802fdd28a2a54cd603fdd3c0ee8f9a6960a0ff28b097558c94c2ff87d1907",
      "transactionIndex": "0x0",
      "blockHash": "0xd23ed3a0f5c5f72a0e5c10165a164a5d27c45f9942bd7c9e989343d01f6c7b6c",
      "blockNumber": "0x4340dc4",
      "gasUsed": "0x16692",
      "effectiveGasPrice": "0x8",
      "from": "0xe34ff1d2c925ddafb28c95c2396fc49a6f64569e",
      "to": "0x8bc25db1feda8fc5eb20d0117ff1f965f2f4e29c",
      "contractAddress": null
    },
    {
      "type": "0x2",
      "status": "0x1",
      "cumulativeGasUsed": "0xce71",
      "logs": [
        {
          "address": "0x8bc25db1feda8fc5eb20d0117ff1f965f2f4e29c",
          "topics": [
            "0xf66d371981005bc780225b328d88a7508d2cd813d875f2ca8ebb10cb405e9dbb",
            "0x000000000000000000000000e34ff1d2c925ddafb28c95c2396fc49a6f64569e"
          ],
          "data": "0x0000000000000000000000000000000000000000000000000000000000000002",
          "blockHash": "0x1c17ff4e95b804b9b9a2c9eda17447242411e1a670009a96ae429e8b8bc49101",
          "blockNumber": "0x4340dc6",
          "blockTimestamp": "0x19e2c6dd475",
          "transactionHash": "0x45fe984e94599ef8922e4ea969e3351a2107b2f964fc3e284b7d85b37e4bbd5a",
          "transactionIndex": "0x0",
          "logIndex": "0x0",
          "removed": false
        }
      ],
      "logsBloom": "0x00000000000000000000000000000000000000000000000000000000000004008000000000000000000000000000000000000000000000000000000000000000000000000000000000000000000000000000000000000000000000000000000000000004000000000000000000000000000000000000000000000000000008000000000000100000000000000000000000000000000000000800000000000000000000000000000000000000000000000000000000000000000000000000000000000000000000000004000000000000000000000000000000000000000000000000000000000000000000000000000804000000000000000000000000000000",
      "transactionHash": "0x45fe984e94599ef8922e4ea969e3351a2107b2f964fc3e284b7d85b37e4bbd5a",
      "transactionIndex": "0x0",
      "blockHash": "0x1c17ff4e95b804b9b9a2c9eda17447242411e1a670009a96ae429e8b8bc49101",
      "blockNumber": "0x4340dc6",
      "gasUsed": "0xce71",
      "effectiveGasPrice": "0x8",
      "from": "0xe34ff1d2c925ddafb28c95c2396fc49a6f64569e",
      "to": "0x8bc25db1feda8fc5eb20d0117ff1f965f2f4e29c",
      "contractAddress": null
    },
    {
      "type": "0x2",
      "status": "0x1",
      "cumulativeGasUsed": "0x8ba5",
      "logs": [
        {
          "address": "0x8bc25db1feda8fc5eb20d0117ff1f965f2f4e29c",
          "topics": [
            "0xf66d371981005bc780225b328d88a7508d2cd813d875f2ca8ebb10cb405e9dbb",
            "0x000000000000000000000000e34ff1d2c925ddafb28c95c2396fc49a6f64569e"
          ],
          "data": "0x0000000000000000000000000000000000000000000000000000000000000001",
          "blockHash": "0x55dc2725ed88cb3cdebcfbeca9d0413482deb420c98e37909d7bf26faff48c3d",
          "blockNumber": "0x4340dc8",
          "blockTimestamp": "0x19e2c6dd57b",
          "transactionHash": "0x4c32c9adee8780216690e873df0f5856691a16b86aadf5d9eb22405dc4b6365e",
          "transactionIndex": "0x0",
          "logIndex": "0x0",
          "removed": false
        }
      ],
      "logsBloom": "0x00000000000000000000000000000000000000000000000000000000000004008000000000000000000000000000000000000000000000000000000000000000000000000000000000000000000000000000000000000000000000000000000000000004000000000000000000000000000000000000000000000000000008000000000000100000000000000000000000000000000000000800000000000000000000000000000000000000000000000000000000000000000000000000000000000000000000000004000000000000000000000000000000000000000000000000000000000000000000000000000804000000000000000000000000000000",
      "transactionHash": "0x4c32c9adee8780216690e873df0f5856691a16b86aadf5d9eb22405dc4b6365e",
      "transactionIndex": "0x0",
      "blockHash": "0x55dc2725ed88cb3cdebcfbeca9d0413482deb420c98e37909d7bf26faff48c3d",
      "blockNumber": "0x4340dc8",
      "gasUsed": "0x8ba5",
      "effectiveGasPrice": "0x8",
      "from": "0xe34ff1d2c925ddafb28c95c2396fc49a6f64569e",
      "to": "0x8bc25db1feda8fc5eb20d0117ff1f965f2f4e29c",
      "contractAddress": null
    },
    {
      "type": "0x2",
      "status": "0x1",
      "cumulativeGasUsed": "0x1048a",
      "logs": [
        {
          "address": "0x8bc25db1feda8fc5eb20d0117ff1f965f2f4e29c",
          "topics": [
            "0xf66d371981005bc780225b328d88a7508d2cd813d875f2ca8ebb10cb405e9dbb",
            "0x000000000000000000000000e34ff1d2c925ddafb28c95c2396fc49a6f64569e"
          ],
          "data": "0x0000000000000000000000000000000000000000000000000000000000000000",
          "blockHash": "0x55dc2725ed88cb3cdebcfbeca9d0413482deb420c98e37909d7bf26faff48c3d",
          "blockNumber": "0x4340dc8",
          "blockTimestamp": "0x19e2c6dd57b",
          "transactionHash": "0xfc2b1fb2d736061c40454c399cdd8d433881009ca2b2c434babe96f5b7db43ff",
          "transactionIndex": "0x1",
          "logIndex": "0x1",
          "removed": false
        }
      ],
      "logsBloom": "0x00000000000000000000000000000000000000000000000000000000000004008000000000000000000000000000000000000000000000000000000000000000000000000000000000000000000000000000000000000000000000000000000000000004000000000000000000000000000000000000000000000000000008000000000000100000000000000000000000000000000000000800000000000000000000000000000000000000000000000000000000000000000000000000000000000000000000000004000000000000000000000000000000000000000000000000000000000000000000000000000804000000000000000000000000000000",
      "transactionHash": "0xfc2b1fb2d736061c40454c399cdd8d433881009ca2b2c434babe96f5b7db43ff",
      "transactionIndex": "0x1",
      "blockHash": "0x55dc2725ed88cb3cdebcfbeca9d0413482deb420c98e37909d7bf26faff48c3d",
      "blockNumber": "0x4340dc8",
      "gasUsed": "0x78e5",
      "effectiveGasPrice": "0x8",
      "from": "0xe34ff1d2c925ddafb28c95c2396fc49a6f64569e",
      "to": "0x8bc25db1feda8fc5eb20d0117ff1f965f2f4e29c",
      "contractAddress": null
    },
    {
      "type": "0x2",
      "status": "0x1",
      "cumulativeGasUsed": "0x1e080",
      "logs": [
        {
          "address": "0xa6eee6c972825f7d746673d9a1e25ca58bd11274",
          "topics": [
            "0xddf252ad1be2c89b69c2b068fc378daa952ba7f163c4a11628f55a4df523b3ef",
            "0x0000000000000000000000008bc25db1feda8fc5eb20d0117ff1f965f2f4e29c",
            "0x000000000000000000000000e34ff1d2c925ddafb28c95c2396fc49a6f64569e"
          ],
          "data": "0x0000000000000000000000000000000000000000000000000000000000000000",
          "blockHash": "0x55dc2725ed88cb3cdebcfbeca9d0413482deb420c98e37909d7bf26faff48c3d",
          "blockNumber": "0x4340dc8",
          "blockTimestamp": "0x19e2c6dd57b",
          "transactionHash": "0xe535eaf940ebe1d3518aed5495227e28a6b259b743597c46afb13d5a21c2f033",
          "transactionIndex": "0x2",
          "logIndex": "0x2",
          "removed": false
        }
      ],
      "logsBloom": "0x00000000000000000000000000000000000000000000000000000000000000000000000000000000000000000000000000000000000000000000000000000000000000000000000000000008000000000000000080000000100000000000000000000004000004000000000000000000000000010000000000000010000000000000000000000000000000000000800000000000000000000000000000000000000000000000000000000000000000000000000000000000000000000000000000000002000000000004000000000000001000000000000000000000000000000000000000000000000000000000000800000000000000000000000000000000",
      "transactionHash": "0xe535eaf940ebe1d3518aed5495227e28a6b259b743597c46afb13d5a21c2f033",
      "transactionIndex": "0x2",
      "blockHash": "0x55dc2725ed88cb3cdebcfbeca9d0413482deb420c98e37909d7bf26faff48c3d",
      "blockNumber": "0x4340dc8",
      "gasUsed": "0xdbf6",
      "effectiveGasPrice": "0x8",
      "from": "0xe34ff1d2c925ddafb28c95c2396fc49a6f64569e",
      "to": "0x8bc25db1feda8fc5eb20d0117ff1f965f2f4e29c",
      "contractAddress": null
    }
  ],
  "libraries": [],
  "pending": [],
  "returns": {},
  "timestamp": 1778861856667,
  "chain": 5124,
  "commit": "6bc0ed5"
}