{
  "transactions": [
    {
      "hash": "0x3b1254a99b5c00452243b3c07246f646a6ffe72e4df2622733139e02ae4e9d36",
      "transactionType": "CALL",
      "contractName": null,
      "contractAddress": "0xa6eee6c972825f7d746673d9a1e25ca58bd11274",
      "function": "transfer(address,uint256)",
      "arguments": [
        "0x8bc25dB1feda8Fc5eB20d0117Ff1f965F2F4E29C",
        "1000000000000000000"
      ],
      "transaction": {
        "from": "0xe34ff1d2c925ddafb28c95c2396fc49a6f64569e",
        "to": "0xa6eee6c972825f7d746673d9a1e25ca58bd11274",
        "gas": "0x11c5d",
        "value": "0x0",
        "input": "0xa9059cbb0000000000000000000000008bc25db1feda8fc5eb20d0117ff1f965f2f4e29c0000000000000000000000000000000000000000000000000de0b6b3a7640000",
        "nonce": "0x7",
        "chainId": "0x1404"
      },
      "additionalContracts": [],
      "isFixedGasLimit": false,
      "hasShieldedArgs": false
    }
  ],
  "receipts": [
    {
      "type": "0x2",
      "status": "0x1",
      "cumulativeGasUsed": "0xcde0",
      "logs": [
        {
          "address": "0xa6eee6c972825f7d746673d9a1e25ca58bd11274",
          "topics": [
            "0xddf252ad1be2c89b69c2b068fc378daa952ba7f163c4a11628f55a4df523b3ef",
            "0x000000000000000000000000e34ff1d2c925ddafb28c95c2396fc49a6f64569e",
            "0x0000000000000000000000008bc25db1feda8fc5eb20d0117ff1f965f2f4e29c"
          ],
          "data": "0x0000000000000000000000000000000000000000000000000000000000000000",
          "blockHash": "0xf1b08716a36561e7c9781314db00db782c415770c2e594d4cc5f82dc4f0c42ba",
          "blockNumber": "0x4340c1a",
          "blockTimestamp": "0x19e2c6d0ba0",
          "transactionHash": "0x3b1254a99b5c00452243b3c07246f646a6ffe72e4df2622733139e02ae4e9d36",
          "transactionIndex": "0x0",
          "logIndex": "0x0",
          "removed": false
        }
      ],
      "logsBloom": "0x00000000000000000000000000000000000000000000000000000000000000000000000000000000000000000000000000000000000000000000000000000000000000000000000000000008000000000000000080000000100000000000000000000004000004000000000000000000000000010000000000000010000000000000000000000000000000000000800000000000000000000000000000000000000000000000000000000000000000000000000000000000000000000000000000000002000000000004000000000000001000000000000000000000000000000000000000000000000000000000000800000000000000000000000000000000",
      "transactionHash": "0x3b1254a99b5c00452243b3c07246f646a6ffe72e4df2622733139e02ae4e9d36",
      "transactionIndex": "0x0",
      "blockHash": "0xf1b08716a36561e7c9781314db00db782c415770c2e594d4cc5f82dc4f0c42ba",
      "blockNumber": "0x4340c1a",
      "gasUsed": "0xcde0",
      "effectiveGasPrice": "0x8",
      "from": "0xe34ff1d2c925ddafb28c95c2396fc49a6f64569e",
      "to": "0xa6eee6c972825f7d746673d9a1e25ca58bd11274",
      "contractAddress": null
    }
  ],
  "libraries": [],
  "pending": [],
  "returns": {},
  "timestamp": 1778861805062,
  "chain": 5124,
  "commit": "6bc0ed5"
}