{
  "transactions": [
    {
      "hash": "0x66128b37736a43004b712f14b176f34077f0563580cae6c6298f4e9206c56784",
      "transactionType": "CALL",
      "contractName": null,
      "contractAddress": "0xb9fb801a5d1491e70a886800982cb80cdf98a174",
      "function": "transfer(address,uint256)",
      "arguments": [
        "0x9Fd14A94bDbEFf73EDB22853cc77416B65E2A0c0",
        "1000000000000000000"
      ],
      "transaction": {
        "from": "0xe34ff1d2c925ddafb28c95c2396fc49a6f64569e",
        "to": "0xb9fb801a5d1491e70a886800982cb80cdf98a174",
        "gas": "0x11c5d",
        "value": "0x0",
        "input": "0xa9059cbb0000000000000000000000009fd14a94bdbeff73edb22853cc77416b65e2a0c00000000000000000000000000000000000000000000000000de0b6b3a7640000",
        "nonce": "0x3",
        "chainId": "0x1404"
      },
      "additionalContracts": [],
      "isFixedGasLimit": false,
      "hasShieldedArgs": false
    }
  ],
  "receipts": [
    {
      "type": "0x2",
      "status": "0x1",
      "cumulativeGasUsed": "0xcde0",
      "logs": [
        {
          "address": "0xb9fb801a5d1491e70a886800982cb80cdf98a174",
          "topics": [
            "0xddf252ad1be2c89b69c2b068fc378daa952ba7f163c4a11628f55a4df523b3ef",
            "0x000000000000000000000000e34ff1d2c925ddafb28c95c2396fc49a6f64569e",
            "0x0000000000000000000000009fd14a94bdbeff73edb22853cc77416b65e2a0c0"
          ],
          "data": "0x0000000000000000000000000000000000000000000000000000000000000000",
          "blockHash": "0x18e1b04c0e51c2140f2da8c9278ef3b7812103c86d9819a32535d125d1ec089e",
          "blockNumber": "0x433d840",
          "blockTimestamp": "0x19e2c549dd1",
          "transactionHash": "0x66128b37736a43004b712f14b176f34077f0563580cae6c6298f4e9206c56784",
          "transactionIndex": "0x0",
          "logIndex": "0x0",
          "removed": false
        }
      ],
      "logsBloom": "0x00000000002000000000000000000000000000020000000000000000000000000000000000000000000000000000000000000000000000000000000000000000000000000000000000000008000000000000000000000000000000000000000000000004000000000000000000000000000000000000000000000010000000000000000000000000000000000000000004000000000000000000000000000000000000000000000000001000000000000000000000000000000000000000000000000002000000000004000000000000000000000000000000000000000000000000000000000000000000000000040800000000100000000000000000000000",
      "transactionHash": "0x66128b37736a43004b712f14b176f34077f0563580cae6c6298f4e9206c56784",
      "transactionIndex": "0x0",
      "blockHash": "0x18e1b04c0e51c2140f2da8c9278ef3b7812103c86d9819a32535d125d1ec089e",
      "blockNumber": "0x433d840",
      "gasUsed": "0xcde0",
      "effectiveGasPrice": "0x8",
      "from": "0xe34ff1d2c925ddafb28c95c2396fc49a6f64569e",
      "to": "0xb9fb801a5d1491e70a886800982cb80cdf98a174",
      "contractAddress": null
    }
  ],
  "libraries": [],
  "pending": [],
  "returns": {},
  "timestamp": 1778860204151,
  "chain": 5124,
  "commit": "6bc0ed5"
}